:020000040000FA
:060000000A128A11FC2F18
:100F74008316031388120813881383120313881229
:100F84000813881388161A30F2005E30F1006E30B0
:100F9400F000F00BCB2FF10BCB2FF20BCB2F00007B
:100FA40083120313881288171530F2004B30F100B6
:100FB400BE30F000F00BDC2FF10BDC2FF20BDC2F3A
:100FC400000083120313881308170630F20013304D
:100FD400F100AD30F000F00BED2FF10BED2FF20B23
:100FE400ED2FF42F831203130813C42FC42F0A12F6
:0C0FF4008A11002883010A128A11BA2F0A
:04400E00D7E0FFFFF9
:00000001FF
